{
  "_format": "hh-sol-artifact-1",
  "contractName": "EventEmitter",
  "sourceName": "src/core/EventEmitter.sol",
  "abi": [
    {
      "inputs": [
        {
          "internalType": "address",
          "name": "_diamond",
          "type": "address"
        }
      ],
      "stateMutability": "nonpayable",
      "type": "constructor"
    },
    {
      "anonymous": false,
      "inputs": [
        {
          "indexed": true,
          "internalType": "bytes32",
          "name": "poolId",
          "type": "bytes32"
        },
        {
          "indexed": true,
          "internalType": "address",
          "name": "collector",
          "type": "address"
        },
        {
          "indexed": false,
          "internalType": "uint256",
          "name": "amount0",
          "type": "uint256"
        },
        {
          "indexed": false,
          "internalType": "uint256",
          "name": "amount1",
          "type": "uint256"
        },
        {
          "indexed": false,
          "internalType": "uint256",
          "name": "protocolFees0Remaining",
          "type": "uint256"
        },
        {
          "indexed": false,
          "internalType": "uint256",
          "name": "protocolFees1Remaining",
          "type": "uint256"
        },
        {
          "indexed": false,
          "internalType": "uint256",
          "name": "timestamp",
          "type": "uint256"
        }
      ],
      "name": "FeesCollectedDetailed",
      "type": "event"
    },
    {
      "anonymous": false,
      "inputs": [
        {
          "indexed": true,
          "internalType": "bytes32",
          "name": "poolId",
          "type": "bytes32"
        },
        {
          "indexed": true,
          "internalType": "address",
          "name": "provider",
          "type": "address"
        },
        {
          "indexed": true,
          "internalType": "uint256",
          "name": "positionId",
          "type": "uint256"
        },
        {
          "indexed": false,
          "internalType": "int24",
          "name": "tickLower",
          "type": "int24"
        },
        {
          "indexed": false,
          "internalType": "int24",
          "name": "tickUpper",
          "type": "int24"
        },
        {
          "indexed": false,
          "internalType": "uint128",
          "name": "liquidity",
          "type": "uint128"
        },
        {
          "indexed": false,
          "internalType": "uint256",
          "name": "amount0",
          "type": "uint256"
        },
        {
          "indexed": false,
          "internalType": "uint256",
          "name": "amount1",
          "type": "uint256"
        },
        {
          "indexed": false,
          "internalType": "uint256",
          "name": "reserve0After",
          "type": "uint256"
        },
        {
          "indexed": false,
          "internalType": "uint256",
          "name": "reserve1After",
          "type": "uint256"
        },
        {
          "indexed": false,
          "internalType": "uint128",
          "name": "totalLiquidityAfter",
          "type": "uint128"
        },
        {
          "indexed": false,
          "internalType": "uint256",
          "name": "timestamp",
          "type": "uint256"
        }
      ],
      "name": "LiquidityAddedDetailed",
      "type": "event"
    },
    {
      "anonymous": false,
      "inputs": [
        {
          "indexed": true,
          "internalType": "bytes32",
          "name": "poolId",
          "type": "bytes32"
        },
        {
          "indexed": true,
          "internalType": "address",
          "name": "provider",
          "type": "address"
        },
        {
          "indexed": true,
          "internalType": "uint256",
          "name": "positionId",
          "type": "uint256"
        },
        {
          "indexed": false,
          "internalType": "uint128",
          "name": "liquidityRemoved",
          "type": "uint128"
        },
        {
          "indexed": false,
          "internalType": "uint256",
          "name": "amount0",
          "type": "uint256"
        },
        {
          "indexed": false,
          "internalType": "uint256",
          "name": "amount1",
          "type": "uint256"
        },
        {
          "indexed": false,
          "internalType": "uint256",
          "name": "reserve0After",
          "type": "uint256"
        },
        {
          "indexed": false,
          "internalType": "uint256",
          "name": "reserve1After",
          "type": "uint256"
        },
        {
          "indexed": false,
          "internalType": "uint128",
          "name": "totalLiquidityAfter",
          "type": "uint128"
        },
        {
          "indexed": false,
          "internalType": "uint256",
          "name": "timestamp",
          "type": "uint256"
        }
      ],
      "name": "LiquidityRemovedDetailed",
      "type": "event"
    },
    {
      "anonymous": false,
      "inputs": [
        {
          "indexed": true,
          "internalType": "bytes32",
          "name": "poolId",
          "type": "bytes32"
        },
        {
          "indexed": true,
          "internalType": "address",
          "name": "creator",
          "type": "address"
        },
        {
          "indexed": false,
          "internalType": "address",
          "name": "token0",
          "type": "address"
        },
        {
          "indexed": false,
          "internalType": "address",
          "name": "token1",
          "type": "address"
        },
        {
          "indexed": false,
          "internalType": "uint24",
          "name": "tickSpacing",
          "type": "uint24"
        },
        {
          "indexed": false,
          "internalType": "enum IPool.PoolType",
          "name": "poolType",
          "type": "uint8"
        },
        {
          "indexed": false,
          "internalType": "uint256",
          "name": "baseFee",
          "type": "uint256"
        },
        {
          "indexed": false,
          "internalType": "uint256",
          "name": "maxImpactFee",
          "type": "uint256"
        },
        {
          "indexed": false,
          "internalType": "uint256",
          "name": "timestamp",
          "type": "uint256"
        }
      ],
      "name": "PoolCreatedDetailed",
      "type": "event"
    },
    {
      "anonymous": false,
      "inputs": [
        {
          "indexed": true,
          "internalType": "bytes32",
          "name": "poolId",
          "type": "bytes32"
        },
        {
          "indexed": false,
          "internalType": "uint160",
          "name": "sqrtPriceX96",
          "type": "uint160"
        },
        {
          "indexed": false,
          "internalType": "int24",
          "name": "tick",
          "type": "int24"
        },
        {
          "indexed": false,
          "internalType": "uint256",
          "name": "timestamp",
          "type": "uint256"
        }
      ],
      "name": "PoolInitializedDetailed",
      "type": "event"
    },
    {
      "anonymous": false,
      "inputs": [
        {
          "indexed": true,
          "internalType": "bytes32",
          "name": "poolId",
          "type": "bytes32"
        },
        {
          "indexed": false,
          "internalType": "uint160",
          "name": "sqrtPriceX96",
          "type": "uint160"
        },
        {
          "indexed": false,
          "internalType": "int24",
          "name": "currentTick",
          "type": "int24"
        },
        {
          "indexed": false,
          "internalType": "uint128",
          "name": "liquidity",
          "type": "uint128"
        },
        {
          "indexed": false,
          "internalType": "uint256",
          "name": "reserve0",
          "type": "uint256"
        },
        {
          "indexed": false,
          "internalType": "uint256",
          "name": "reserve1",
          "type": "uint256"
        },
        {
          "indexed": false,
          "internalType": "uint256",
          "name": "feeGrowthGlobal0X128",
          "type": "uint256"
        },
        {
          "indexed": false,
          "internalType": "uint256",
          "name": "feeGrowthGlobal1X128",
          "type": "uint256"
        },
        {
          "indexed": false,
          "internalType": "uint256",
          "name": "timestamp",
          "type": "uint256"
        }
      ],
      "name": "PoolSnapshot",
      "type": "event"
    },
    {
      "anonymous": false,
      "inputs": [
        {
          "indexed": true,
          "internalType": "bytes32",
          "name": "poolId",
          "type": "bytes32"
        },
        {
          "indexed": true,
          "internalType": "address",
          "name": "sender",
          "type": "address"
        },
        {
          "indexed": true,
          "internalType": "address",
          "name": "recipient",
          "type": "address"
        },
        {
          "indexed": false,
          "internalType": "bool",
          "name": "zeroForOne",
          "type": "bool"
        },
        {
          "indexed": false,
          "internalType": "int256",
          "name": "amount0",
          "type": "int256"
        },
        {
          "indexed": false,
          "internalType": "int256",
          "name": "amount1",
          "type": "int256"
        },
        {
          "indexed": false,
          "internalType": "uint160",
          "name": "sqrtPriceX96Before",
          "type": "uint160"
        },
        {
          "indexed": false,
          "internalType": "uint160",
          "name": "sqrtPriceX96After",
          "type": "uint160"
        },
        {
          "indexed": false,
          "internalType": "int24",
          "name": "tickBefore",
          "type": "int24"
        },
        {
          "indexed": false,
          "internalType": "int24",
          "name": "tickAfter",
          "type": "int24"
        },
        {
          "indexed": false,
          "internalType": "uint128",
          "name": "liquidity",
          "type": "uint128"
        },
        {
          "indexed": false,
          "internalType": "uint256",
          "name": "feeAmount",
          "type": "uint256"
        },
        {
          "indexed": false,
          "internalType": "uint256",
          "name": "timestamp",
          "type": "uint256"
        }
      ],
      "name": "SwapExecuted",
      "type": "event"
    },
    {
      "inputs": [
        {
          "internalType": "uint256",
          "name": "",
          "type": "uint256"
        }
      ],
      "name": "allPoolIds",
      "outputs": [
        {
          "internalType": "bytes32",
          "name": "",
          "type": "bytes32"
        }
      ],
      "stateMutability": "view",
      "type": "function"
    },
    {
      "inputs": [],
      "name": "diamond",
      "outputs": [
        {
          "internalType": "address",
          "name": "",
          "type": "address"
        }
      ],
      "stateMutability": "view",
      "type": "function"
    },
    {
      "inputs": [
        {
          "internalType": "bytes32",
          "name": "poolId",
          "type": "bytes32"
        },
        {
          "internalType": "address",
          "name": "collector",
          "type": "address"
        },
        {
          "internalType": "uint256",
          "name": "amount0",
          "type": "uint256"
        },
        {
          "internalType": "uint256",
          "name": "amount1",
          "type": "uint256"
        },
        {
          "internalType": "uint256",
          "name": "protocolFees0Remaining",
          "type": "uint256"
        },
        {
          "internalType": "uint256",
          "name": "protocolFees1Remaining",
          "type": "uint256"
        }
      ],
      "name": "emitFeesCollected",
      "outputs": [],
      "stateMutability": "nonpayable",
      "type": "function"
    },
    {
      "inputs": [
        {
          "internalType": "bytes32",
          "name": "poolId",
          "type": "bytes32"
        },
        {
          "internalType": "address",
          "name": "provider",
          "type": "address"
        },
        {
          "internalType": "uint256",
          "name": "positionId",
          "type": "uint256"
        },
        {
          "internalType": "int24",
          "name": "tickLower",
          "type": "int24"
        },
        {
          "internalType": "int24",
          "name": "tickUpper",
          "type": "int24"
        },
        {
          "internalType": "uint128",
          "name": "liquidity",
          "type": "uint128"
        },
        {
          "internalType": "uint256",
          "name": "amount0",
          "type": "uint256"
        },
        {
          "internalType": "uint256",
          "name": "amount1",
          "type": "uint256"
        },
        {
          "internalType": "uint256",
          "name": "reserve0After",
          "type": "uint256"
        },
        {
          "internalType": "uint256",
          "name": "reserve1After",
          "type": "uint256"
        },
        {
          "internalType": "uint128",
          "name": "totalLiquidityAfter",
          "type": "uint128"
        }
      ],
      "name": "emitLiquidityAdded",
      "outputs": [],
      "stateMutability": "nonpayable",
      "type": "function"
    },
    {
      "inputs": [
        {
          "internalType": "bytes32",
          "name": "poolId",
          "type": "bytes32"
        },
        {
          "internalType": "address",
          "name": "provider",
          "type": "address"
        },
        {
          "internalType": "uint256",
          "name": "positionId",
          "type": "uint256"
        },
        {
          "internalType": "uint128",
          "name": "liquidityRemoved",
          "type": "uint128"
        },
        {
          "internalType": "uint256",
          "name": "amount0",
          "type": "uint256"
        },
        {
          "internalType": "uint256",
          "name": "amount1",
          "type": "uint256"
        },
        {
          "internalType": "uint256",
          "name": "reserve0After",
          "type": "uint256"
        },
        {
          "internalType": "uint256",
          "name": "reserve1After",
          "type": "uint256"
        },
        {
          "internalType": "uint128",
          "name": "totalLiquidityAfter",
          "type": "uint128"
        }
      ],
      "name": "emitLiquidityRemoved",
      "outputs": [],
      "stateMutability": "nonpayable",
      "type": "function"
    },
    {
      "inputs": [
        {
          "internalType": "bytes32",
          "name": "poolId",
          "type": "bytes32"
        },
        {
          "internalType": "address",
          "name": "creator",
          "type": "address"
        },
        {
          "internalType": "address",
          "name": "token0",
          "type": "address"
        },
        {
          "internalType": "address",
          "name": "token1",
          "type": "address"
        },
        {
          "internalType": "uint24",
          "name": "tickSpacing",
          "type": "uint24"
        },
        {
          "internalType": "enum IPool.PoolType",
          "name": "poolType",
          "type": "uint8"
        },
        {
          "internalType": "uint256",
          "name": "baseFee",
          "type": "uint256"
        },
        {
          "internalType": "uint256",
          "name": "maxImpactFee",
          "type": "uint256"
        }
      ],
      "name": "emitPoolCreated",
      "outputs": [],
      "stateMutability": "nonpayable",
      "type": "function"
    },
    {
      "inputs": [
        {
          "internalType": "bytes32",
          "name": "poolId",
          "type": "bytes32"
        },
        {
          "internalType": "uint160",
          "name": "sqrtPriceX96",
          "type": "uint160"
        },
        {
          "internalType": "int24",
          "name": "tick",
          "type": "int24"
        }
      ],
      "name": "emitPoolInitialized",
      "outputs": [],
      "stateMutability": "nonpayable",
      "type": "function"
    },
    {
      "inputs": [
        {
          "internalType": "bytes32",
          "name": "poolId",
          "type": "bytes32"
        },
        {
          "internalType": "uint160",
          "name": "sqrtPriceX96",
          "type": "uint160"
        },
        {
          "internalType": "int24",
          "name": "currentTick",
          "type": "int24"
        },
        {
          "internalType": "uint128",
          "name": "liquidity",
          "type": "uint128"
        },
        {
          "internalType": "uint256",
          "name": "reserve0",
          "type": "uint256"
        },
        {
          "internalType": "uint256",
          "name": "reserve1",
          "type": "uint256"
        },
        {
          "internalType": "uint256",
          "name": "feeGrowthGlobal0X128",
          "type": "uint256"
        },
        {
          "internalType": "uint256",
          "name": "feeGrowthGlobal1X128",
          "type": "uint256"
        }
      ],
      "name": "emitPoolSnapshot",
      "outputs": [],
      "stateMutability": "nonpayable",
      "type": "function"
    },
    {
      "inputs": [
        {
          "internalType": "bytes32",
          "name": "poolId",
          "type": "bytes32"
        },
        {
          "internalType": "address",
          "name": "sender",
          "type": "address"
        },
        {
          "internalType": "address",
          "name": "recipient",
          "type": "address"
        },
        {
          "internalType": "bool",
          "name": "zeroForOne",
          "type": "bool"
        },
        {
          "internalType": "int256",
          "name": "amount0",
          "type": "int256"
        },
        {
          "internalType": "int256",
          "name": "amount1",
          "type": "int256"
        },
        {
          "internalType": "uint160",
          "name": "sqrtPriceX96Before",
          "type": "uint160"
        },
        {
          "internalType": "uint160",
          "name": "sqrtPriceX96After",
          "type": "uint160"
        },
        {
          "internalType": "int24",
          "name": "tickBefore",
          "type": "int24"
        },
        {
          "internalType": "int24",
          "name": "tickAfter",
          "type": "int24"
        },
        {
          "internalType": "uint128",
          "name": "liquidity",
          "type": "uint128"
        },
        {
          "internalType": "uint256",
          "name": "feeAmount",
          "type": "uint256"
        }
      ],
      "name": "emitSwap",
      "outputs": [],
      "stateMutability": "nonpayable",
      "type": "function"
    },
    {
      "inputs": [],
      "name": "getAllPoolIds",
      "outputs": [
        {
          "internalType": "bytes32[]",
          "name": "",
          "type": "bytes32[]"
        }
      ],
      "stateMutability": "view",
      "type": "function"
    },
    {
      "inputs": [
        {
          "internalType": "bytes32[]",
          "name": "poolIds",
          "type": "bytes32[]"
        }
      ],
      "name": "getMultiPoolStats",
      "outputs": [
        {
          "internalType": "uint256[]",
          "name": "swapCounts",
          "type": "uint256[]"
        },
        {
          "internalType": "uint256[]",
          "name": "volumes0",
          "type": "uint256[]"
        },
        {
          "internalType": "uint256[]",
          "name": "volumes1",
          "type": "uint256[]"
        },
        {
          "internalType": "uint160[]",
          "name": "prices",
          "type": "uint160[]"
        }
      ],
      "stateMutability": "view",
      "type": "function"
    },
    {
      "inputs": [],
      "name": "getPoolCount",
      "outputs": [
        {
          "internalType": "uint256",
          "name": "",
          "type": "uint256"
        }
      ],
      "stateMutability": "view",
      "type": "function"
    },
    {
      "inputs": [
        {
          "internalType": "bytes32",
          "name": "poolId",
          "type": "bytes32"
        }
      ],
      "name": "getPoolInfo",
      "outputs": [
        {
          "components": [
            {
              "internalType": "address",
              "name": "token0",
              "type": "address"
            },
            {
              "internalType": "address",
              "name": "token1",
              "type": "address"
            },
            {
              "internalType": "address",
              "name": "creator",
              "type": "address"
            },
            {
              "internalType": "uint24",
              "name": "tickSpacing",
              "type": "uint24"
            },
            {
              "internalType": "uint256",
              "name": "createdAt",
              "type": "uint256"
            },
            {
              "internalType": "uint256",
              "name": "totalSwaps",
              "type": "uint256"
            },
            {
              "internalType": "uint256",
              "name": "totalVolume0",
              "type": "uint256"
            },
            {
              "internalType": "uint256",
              "name": "totalVolume1",
              "type": "uint256"
            },
            {
              "internalType": "uint160",
              "name": "lastSqrtPriceX96",
              "type": "uint160"
            },
            {
              "internalType": "uint160",
              "name": "previousSqrtPriceX96",
              "type": "uint160"
            },
            {
              "internalType": "int24",
              "name": "lastTick",
              "type": "int24"
            }
          ],
          "internalType": "struct EventEmitter.PoolInfo",
          "name": "",
          "type": "tuple"
        }
      ],
      "stateMutability": "view",
      "type": "function"
    },
    {
      "inputs": [
        {
          "internalType": "bytes32",
          "name": "poolId",
          "type": "bytes32"
        }
      ],
      "name": "getPoolLPCount",
      "outputs": [
        {
          "internalType": "uint256",
          "name": "",
          "type": "uint256"
        }
      ],
      "stateMutability": "view",
      "type": "function"
    },
    {
      "inputs": [
        {
          "internalType": "bytes32",
          "name": "poolId",
          "type": "bytes32"
        }
      ],
      "name": "getPoolLPs",
      "outputs": [
        {
          "internalType": "address[]",
          "name": "",
          "type": "address[]"
        }
      ],
      "stateMutability": "view",
      "type": "function"
    },
    {
      "inputs": [
        {
          "internalType": "bytes32",
          "name": "poolId",
          "type": "bytes32"
        }
      ],
      "name": "getPoolStats",
      "outputs": [
        {
          "internalType": "uint256",
          "name": "totalSwaps",
          "type": "uint256"
        },
        {
          "internalType": "uint256",
          "name": "totalVolume0",
          "type": "uint256"
        },
        {
          "internalType": "uint256",
          "name": "totalVolume1",
          "type": "uint256"
        },
        {
          "internalType": "uint256",
          "name": "lpCount",
          "type": "uint256"
        },
        {
          "internalType": "uint256",
          "name": "createdAt",
          "type": "uint256"
        },
        {
          "internalType": "address",
          "name": "creator",
          "type": "address"
        }
      ],
      "stateMutability": "view",
      "type": "function"
    },
    {
      "inputs": [
        {
          "internalType": "bytes32",
          "name": "poolId",
          "type": "bytes32"
        }
      ],
      "name": "getPrice",
      "outputs": [
        {
          "internalType": "uint160",
          "name": "sqrtPriceX96",
          "type": "uint160"
        },
        {
          "internalType": "int24",
          "name": "tick",
          "type": "int24"
        }
      ],
      "stateMutability": "view",
      "type": "function"
    },
    {
      "inputs": [
        {
          "internalType": "bytes32",
          "name": "poolId",
          "type": "bytes32"
        }
      ],
      "name": "getPriceChange",
      "outputs": [
        {
          "internalType": "uint160",
          "name": "currentPrice",
          "type": "uint160"
        },
        {
          "internalType": "uint160",
          "name": "previousPrice",
          "type": "uint160"
        },
        {
          "internalType": "int256",
          "name": "priceChangeBps",
          "type": "int256"
        }
      ],
      "stateMutability": "view",
      "type": "function"
    },
    {
      "inputs": [
        {
          "internalType": "bytes32",
          "name": "poolId",
          "type": "bytes32"
        }
      ],
      "name": "getReserves",
      "outputs": [
        {
          "internalType": "uint256",
          "name": "reserve0",
          "type": "uint256"
        },
        {
          "internalType": "uint256",
          "name": "reserve1",
          "type": "uint256"
        }
      ],
      "stateMutability": "view",
      "type": "function"
    },
    {
      "inputs": [
        {
          "internalType": "bytes32",
          "name": "poolId",
          "type": "bytes32"
        },
        {
          "internalType": "address",
          "name": "addr",
          "type": "address"
        }
      ],
      "name": "isPoolLP",
      "outputs": [
        {
          "internalType": "bool",
          "name": "",
          "type": "bool"
        }
      ],
      "stateMutability": "view",
      "type": "function"
    },
    {
      "inputs": [
        {
          "internalType": "bytes32",
          "name": "",
          "type": "bytes32"
        }
      ],
      "name": "isRegistered",
      "outputs": [
        {
          "internalType": "bool",
          "name": "",
          "type": "bool"
        }
      ],
      "stateMutability": "view",
      "type": "function"
    },
    {
      "inputs": [],
      "name": "owner",
      "outputs": [
        {
          "internalType": "address",
          "name": "",
          "type": "address"
        }
      ],
      "stateMutability": "view",
      "type": "function"
    },
    {
      "inputs": [
        {
          "internalType": "bytes32",
          "name": "",
          "type": "bytes32"
        }
      ],
      "name": "poolInfos",
      "outputs": [
        {
          "internalType": "address",
          "name": "token0",
          "type": "address"
        },
        {
          "internalType": "address",
          "name": "token1",
          "type": "address"
        },
        {
          "internalType": "address",
          "name": "creator",
          "type": "address"
        },
        {
          "internalType": "uint24",
          "name": "tickSpacing",
          "type": "uint24"
        },
        {
          "internalType": "uint256",
          "name": "createdAt",
          "type": "uint256"
        },
        {
          "internalType": "uint256",
          "name": "totalSwaps",
          "type": "uint256"
        },
        {
          "internalType": "uint256",
          "name": "totalVolume0",
          "type": "uint256"
        },
        {
          "internalType": "uint256",
          "name": "totalVolume1",
          "type": "uint256"
        },
        {
          "internalType": "uint160",
          "name": "lastSqrtPriceX96",
          "type": "uint160"
        },
        {
          "internalType": "uint160",
          "name": "previousSqrtPriceX96",
          "type": "uint160"
        },
        {
          "internalType": "int24",
          "name": "lastTick",
          "type": "int24"
        }
      ],
      "stateMutability": "view",
      "type": "function"
    }
  ],
  "bytecode": "0x60a0346100bb57601f611aac38819003918201601f19168301916001600160401b038311848410176100c0578084926020946040528339810103126100bb57516001600160a01b03811681036100bb57608052600080546001600160a01b031916331790556040516119d590816100d782396080518181816102290152818161031c015281816104bf015281816105ba01528181610b2e01528181610ccf01528181610da901528181610ee7015281816113da01526114720152f35b600080fd5b634e487b7160e01b600052604160045260246000fdfe608080604052600436101561001357600080fd5b60003560e01c90816309f2c0191461152b5750806327258b22146114fa5780632edff4aa1461145357806331d98b3f146113ab57806336a9ac40146112e357806342917af3146110c057806371b6aaac14610faf5780638da5cb5b14610f865780638ee59fb414610eaa5780638eec5d7014610e8c5780639ecfbe6814610e3f578063a047a76c14610d5c578063a4a9e98814610ca0578063b709af8914610ad1578063b97bbd3b14610a13578063c2fb771814610899578063c584e4131461055a578063d91d186914610486578063e225d55a14610284578063eadd047314610258578063f0b7db4e14610213578063f19c3d5b146101595763fcb72a9c1461011c57600080fd5b34610154576020366003190112610154576004356001548110156101545761014560209161176b565b90549060031b1c604051908152f35b600080fd5b34610154576000366003190112610154576040518060206001549283815201809260016000527fb10e2d527612073b26eecdfd717e6a320cf44b4afac2b0732d9fcbe2b7fa0cf69060005b8181106101fd57505050816101ba9103826117b9565b6040519182916020830190602084525180915260408301919060005b8181106101e4575050500390f35b82518452859450602093840193909201916001016101d6565b82548452602090930192600192830192016101a4565b34610154576000366003190112610154576040517f00000000000000000000000000000000000000000000000000000000000000006001600160a01b03168152602090f35b346101545760203660031901126101545760043560005260046020526020604060002054604051908152f35b3461015457610180366003190112610154576004356102a16116ce565b906102aa6116e4565b90606435918215158093036101545760c4356001600160a01b0381169160a43591608435908490036101545760e4356001600160a01b03811694908590036101545761010435948560020b8096036101545761012435958660020b9182880361015457610315611744565b9361034a337f00000000000000000000000000000000000000000000000000000000000000006001600160a01b0316146117db565b60008a81526003602052604090206008810180546007830180546001600160a01b0319168617905560a09b909b1b62ffffff60a01b166001600160b81b0319909b1662ffffff60a01b198416179a909a1790995560048901978854966000198814610470577f5500ee9d1bbf42f0ebd197ed37f417eec0f9b7a586c062788bb391dd8efb3cde9a6101409a60016001600160801b039a0190556000821361045a575b60008313610444575b50604080519d8e5260208e01919091528c015260608b015260808a015260a089015260c08801521660e086015261016435610100860152426101208601526001600160a01b03908116951693a4005b600601610452838254611992565b90558e6103f5565b60058101610469838254611992565b90556103ec565b634e487b7160e01b600052601160045260246000fd5b3461015457610100366003190112610154576104a06116ce565b6001600160801b036104b061175b565b6104b861172e565b906104ed337f00000000000000000000000000000000000000000000000000000000000000006001600160a01b0316146117db565b6040519360018060a01b0316845260020b6020840152166040820152608435606082015260a435608082015260c43560a082015260e43560c08201524260e08201527f65e52c15f0085820baaf85de81b1ae0defe0bae285b66290e3c1c97c81a452ef61010060043592a2005b3461015457610100366003190112610154576004356105776116ce565b906105806116e4565b916064356001600160a01b03811691908290036101545760843562ffffff81168091036101545760a435906002821015610154576105e8337f00000000000000000000000000000000000000000000000000000000000000006001600160a01b0316146117db565b84600052600260205260ff6040600020541615610663575b604080516001600160a01b0397881681526020810195909552840152606083015260c435608083015260e43560a08301524260c0830152909216917f1c369c4595abbe8345e37cedee279b3556ba0b7755982ecda34b5ccb371773c09060e090a3005b91908460005260026020526040600020600160ff1982541617905560015492600160401b841015610883577f1c369c4595abbe8345e37cedee279b3556ba0b7755982ecda34b5ccb371773c0946106c285600160e0970160015561176b565b81549060031b9089821b91600019901b19161790556108786040516106e68161179c565b60018060a01b038a16815288600860208301928584526040810160018060a01b038a16815260608201908882526080830142815260a084016000815260c0850191600083528e860193600085526101008701956000875261012088019a60008c5261014089019a60008c52600052600360205260406000209860018060a01b039060018060a01b03905116166001600160601b0360a01b8a541617895560018060a01b03905116600189019060018060a01b03166001600160601b0360a01b825416179055600288019160018060a01b039060018060a01b03905116166001600160601b0360a01b8354161782555181549062ffffff60a01b9060a01b169062ffffff60a01b191617905551600386015551600485015551600584015551600683015560018060a01b03905116600782019060018060a01b03166001600160601b0360a01b825416179055019160018060a01b039060018060a01b03905116166001600160601b0360a01b8354161782555160020b81549060a01b62ffffff60a01b169062ffffff60a01b1916179055565b945090919250610600565b634e487b7160e01b600052604160045260246000fd5b3461015457602036600319011261015457600060043560005260036020526040600020604051916108c98361179c565b81546001600160a01b039081168452600183015481166020850152600280840154808316604087015260a090811c62ffffff16606087015260038501546080870152600485015486820152600585015460c0870152600685015460e0870152600785015483166101008701819052600890950154928316610120870181905292901c900b6101409094019390935282151580610a0a575b61097a575b60609260405192835260208301526040820152f35b508181106109c0576001600160a01b036109948383611959565b16916127108302928084046127101490151715610470576109b781606094611972565b905b9250610965565b6001600160a01b036109d28284611959565b16612710810290808204612710149015171561047057826109f291611972565b91600160ff1b831461047057606092600003906109b9565b50811515610960565b3461015457602036600319011261015457600435600052600460205260406000206040518060208354918281520190819360005260206000209060005b818110610ab25750505081610a669103826117b9565b6040519182916020830190602084525180915260408301919060005b818110610a90575050500390f35b82516001600160a01b0316845285945060209384019390920191600101610a82565b82546001600160a01b0316845260209093019260019283019201610a50565b346101545761016036600319011261015457600435610aee6116ce565b6064358060020b80910361015457608435928360020b8094036101545760a4356001600160801b03811680910361015457610b27611744565b90610b5c337f00000000000000000000000000000000000000000000000000000000000000006001600160a01b0316146117db565b826000526005602052604060002060018060a01b03861660005260205260ff6040600020541615610c07575b604080519485526020850187905284015260c435606084015260e43560808401526101043560a08401526101243560c08401526001600160801b031660e083015242610100830152604435926001600160a01b0316917f4448d36ae0c1317a979978321778104700b10ec346e408bc231aee4ea9d0c58a9061012090a4005b826000526005602052604060002060018060a01b0386166000526020526040600020600160ff198254161790558260005260046020526040600020958654600160401b811015610883576001810188556000978054821015610c8c57885260209097209690960180546001600160a01b0319166001600160a01b038716179055610b88565b634e487b7160e01b89526032600452602489fd5b3461015457602036600319011261015457604051636acaa04560e11b81526004803590820152610160816024817f00000000000000000000000000000000000000000000000000000000000000006001600160a01b03165afa8015610d5057604091600091610d21575b506080606082015191015182519182526020820152f35b610d4391506101603d8111610d49575b610d3b81836117b9565b810190611827565b82610d0a565b503d610d31565b6040513d6000823e3d90fd5b34610154576060366003190112610154576004357f7783d3b020b931283ddeaed58cc1c1e5fe463e5565a264d05061e96853b37b176060610d9b6116ce565b610da361175b565b610dd7337f00000000000000000000000000000000000000000000000000000000000000006001600160a01b0316146117db565b60008581526003602052604090206007810180546001600160a01b0319166001600160a01b038516179055600801805462ffffff60a01b191662ffffff60a01b60a084901b161790556040519160018060a01b0316825260020b6020820152426040820152a2005b3461015457604036600319011261015457610e586116ce565b600435600052600560205260406000209060018060a01b0316600052602052602060ff604060002054166040519015158152f35b34610154576000366003190112610154576020600154604051908152f35b346101545761012036600319011261015457610ec46116ce565b610ecc61172e565b610104356001600160801b03811680910361015457610f15337f00000000000000000000000000000000000000000000000000000000000000006001600160a01b0316146117db565b6001600160801b0360405192168252608435602083015260a435604083015260c435606083015260e435608083015260a08201524260c08201526044359160018060a01b0316907f1830c1200c4e13944867727fde012b1d6bd5317f4de161614163169287c378dc60e060043592a4005b34610154576000366003190112610154576000546040516001600160a01b039091168152602090f35b346101545760203660031901126101545760c0600435806000526003602052604060002060405190610fe08261179c565b60018060a01b03815416825260018060a01b03600182015416602083015260028101549062ffffff604084019260018060a01b038116845260a01c166060840152600381015490608084019182526004810154948560a0860152600582015494858882015261014060086006850154948560e085015260018060a01b03600782015416610100850152015460018060a01b03811661012084015260a01c60020b910152600052600460205260406000205491519260018060a01b0390511693604051958652602086015260408501526060840152608083015260a0820152f35b346101545760203660031901126101545760043567ffffffffffffffff8111610154573660238201121561015457806004013567ffffffffffffffff8111610154573660248260051b840101116101545761111a81611913565b9161112482611913565b61112d83611913565b611136846118fb565b9261114460405194856117b9565b848452611150856118fb565b6020850190601f190136823760005b8681101561125b576001906040600060248360051b87010135815260036020522060405161118c8161179c565b815460a085811b869003918216835283860154821660208401526002808501548084166040860152821c62ffffff166060850152600385015460808501526004850154848301819052600586015460c08601908152600687015460e087019081526007880154861661010088019081526008909801549586166101208801529490931c90910b610140909401939093529091611228858e611945565b5251611234848a611945565b52516112408388611945565b52828060a01b039051166112548289611945565b520161115f565b50939261128496955061129f91509161129160209360405198899860808a5260808a01906116fa565b90888203868a01526116fa565b9086820360408801526116fa565b918483036060860152519182815201919060005b8181106112c1575050500390f35b82516001600160a01b03168452859450602093840193909201916001016112b3565b34610154576020366003190112610154576004356000526003602052610160604060002060018060a01b038154169060018060a01b036001820154169060028101546003820154600483015460058401549162ffffff600686015494600860018060a01b0360078901541697015497604051998a5260208a015260018060a01b03811660408a015260a01c166060880152608087015260a086015260c085015260e084015261010083015260018060a01b03811661012083015260a01c60020b610140820152f35b3461015457602036600319011261015457604051636acaa04560e11b81526004803590820152610160816024817f00000000000000000000000000000000000000000000000000000000000000006001600160a01b03165afa8015610d5057604091600091611434575b50602060018060a01b0382511691015160020b82519182526020820152f35b61144d91506101603d8111610d4957610d3b81836117b9565b82611415565b346101545760c03660031901126101545761146c6116ce565b6114a0337f00000000000000000000000000000000000000000000000000000000000000006001600160a01b0316146117db565b6040519060443582526064356020830152608435604083015260a435606083015242608083015260018060a01b0316907f525dde001a0afad89c6fc6c514ccd18571aa8493a8f90a4ddb6994ca7a934b3560a060043592a3005b34610154576020366003190112610154576004356000526002602052602060ff604060002054166040519015158152f35b34610154576020366003190112610154576101408161154b60009361179c565b8281528260208201528260408201528260608201528260808201528260a08201528260c08201528260e08201528261010082015282610120820152015260043560005260036020526101606040600020604051906115a88261179c565b60018060a01b038154169182815260018060a01b0360018301541691602082019283526002810154604083019060018060a01b038116825262ffffff606085019160a01c16815260038301546080850190815260048401549060a0860191825262ffffff60058601549360c0880194855260068701549560e08901968752600860018060a01b0360078a015416986101008b01998a520154996101406101208b019a60018060a01b038d168c52019a60a01c60020b8b526040519b8c5260018060a01b0390511660208c015260018060a01b0390511660408b0152511660608901525160808801525160a08701525160c08601525160e085015260018060a01b0390511661010084015260018060a01b039051166101208301525160020b610140820152f35b602435906001600160a01b038216820361015457565b604435906001600160a01b038216820361015457565b906020808351928381520192019060005b8181106117185750505090565b825184526020938401939092019160010161170b565b606435906001600160801b038216820361015457565b61014435906001600160801b038216820361015457565b604435908160020b820361015457565b60015481101561178657600160005260206000200190600090565b634e487b7160e01b600052603260045260246000fd5b610160810190811067ffffffffffffffff82111761088357604052565b90601f8019910116810190811067ffffffffffffffff82111761088357604052565b156117e257565b60405162461bcd60e51b815260206004820152601a60248201527f4576656e74456d69747465723a206f6e6c79206469616d6f6e640000000000006044820152606490fd5b9081610160910312610154576000604051916118428361179c565b80516001600160a01b03811681036118f757835260208101518060020b81036118f757602084015260408101516001600160801b03811681036118f7576040840152606081015160608401526080810151608084015260a081015160a084015260c081015160c084015260e081015160e084015261010081015161010084015261012081015163ffffffff811681036118f75761012084015261014001519081151582036118f4575061014082015290565b80fd5b8280fd5b67ffffffffffffffff81116108835760051b60200190565b9061191d826118fb565b61192a60405191826117b9565b828152809261193b601f19916118fb565b0190602036910137565b80518210156117865760209160051b010190565b6001600160a01b03918216908216039190821161047057565b811561197c570490565b634e487b7160e01b600052601260045260246000fd5b919082018092116104705756fea2646970667358221220e98f560c43ea975481447fb2e4a6052a9ead116017a2b5916d6f0782460c2ba864736f6c634300081b0033",
  "linkReferences": {},
  "deployedLinkReferences": {}
}