{
  "_format": "hh-sol-artifact-1",
  "contractName": "OraclePegFacet",
  "sourceName": "src/core/facets/OraclePegFacet.sol",
  "abi": [
    {
      "inputs": [
        {
          "internalType": "address",
          "name": "_user",
          "type": "address"
        },
        {
          "internalType": "address",
          "name": "_contractOwner",
          "type": "address"
        }
      ],
      "name": "NotContractOwner",
      "type": "error"
    },
    {
      "anonymous": false,
      "inputs": [
        {
          "indexed": true,
          "internalType": "bytes32",
          "name": "poolId",
          "type": "bytes32"
        },
        {
          "indexed": false,
          "internalType": "string",
          "name": "reason",
          "type": "string"
        }
      ],
      "name": "CircuitBreakerTriggered",
      "type": "event"
    },
    {
      "anonymous": false,
      "inputs": [
        {
          "indexed": true,
          "internalType": "bytes32",
          "name": "poolId",
          "type": "bytes32"
        }
      ],
      "name": "OraclePegRemoved",
      "type": "event"
    },
    {
      "anonymous": false,
      "inputs": [
        {
          "indexed": true,
          "internalType": "bytes32",
          "name": "poolId",
          "type": "bytes32"
        },
        {
          "indexed": true,
          "internalType": "address",
          "name": "oracle",
          "type": "address"
        },
        {
          "indexed": false,
          "internalType": "uint32",
          "name": "twapPeriod",
          "type": "uint32"
        },
        {
          "indexed": false,
          "internalType": "uint32",
          "name": "maxStaleness",
          "type": "uint32"
        }
      ],
      "name": "OraclePegSet",
      "type": "event"
    },
    {
      "inputs": [
        {
          "internalType": "bytes32",
          "name": "poolId",
          "type": "bytes32"
        }
      ],
      "name": "getOracleMidPrice",
      "outputs": [
        {
          "internalType": "uint256",
          "name": "midPrice",
          "type": "uint256"
        },
        {
          "internalType": "bool",
          "name": "isValid",
          "type": "bool"
        }
      ],
      "stateMutability": "view",
      "type": "function"
    },
    {
      "inputs": [
        {
          "internalType": "bytes32",
          "name": "poolId",
          "type": "bytes32"
        }
      ],
      "name": "getPegConfig",
      "outputs": [
        {
          "components": [
            {
              "internalType": "address",
              "name": "oracleAddress",
              "type": "address"
            },
            {
              "internalType": "uint32",
              "name": "twapPeriod",
              "type": "uint32"
            },
            {
              "internalType": "uint32",
              "name": "maxStaleness",
              "type": "uint32"
            },
            {
              "internalType": "uint256",
              "name": "maxSpotDeviation",
              "type": "uint256"
            }
          ],
          "internalType": "struct IOraclePegFacet.PegConfig",
          "name": "",
          "type": "tuple"
        }
      ],
      "stateMutability": "view",
      "type": "function"
    },
    {
      "inputs": [
        {
          "internalType": "bytes32",
          "name": "poolId",
          "type": "bytes32"
        }
      ],
      "name": "getRawOraclePrices",
      "outputs": [
        {
          "internalType": "uint256",
          "name": "spotPrice_",
          "type": "uint256"
        },
        {
          "internalType": "uint256",
          "name": "spotUpdatedAt",
          "type": "uint256"
        },
        {
          "internalType": "uint256",
          "name": "twapPrice_",
          "type": "uint256"
        }
      ],
      "stateMutability": "view",
      "type": "function"
    },
    {
      "inputs": [
        {
          "internalType": "bytes32",
          "name": "poolId",
          "type": "bytes32"
        }
      ],
      "name": "isPoolPegged",
      "outputs": [
        {
          "internalType": "bool",
          "name": "",
          "type": "bool"
        }
      ],
      "stateMutability": "view",
      "type": "function"
    },
    {
      "inputs": [
        {
          "internalType": "bytes32",
          "name": "poolId",
          "type": "bytes32"
        }
      ],
      "name": "removeOraclePeg",
      "outputs": [],
      "stateMutability": "nonpayable",
      "type": "function"
    },
    {
      "inputs": [
        {
          "internalType": "bytes32",
          "name": "poolId",
          "type": "bytes32"
        },
        {
          "components": [
            {
              "internalType": "address",
              "name": "oracleAddress",
              "type": "address"
            },
            {
              "internalType": "uint32",
              "name": "twapPeriod",
              "type": "uint32"
            },
            {
              "internalType": "uint32",
              "name": "maxStaleness",
              "type": "uint32"
            },
            {
              "internalType": "uint256",
              "name": "maxSpotDeviation",
              "type": "uint256"
            }
          ],
          "internalType": "struct IOraclePegFacet.PegConfig",
          "name": "config",
          "type": "tuple"
        }
      ],
      "name": "setOraclePeg",
      "outputs": [],
      "stateMutability": "nonpayable",
      "type": "function"
    }
  ],
  "bytecode": "0x60808060405234601557610e2e908161001b8239f35b600080fdfe608080604052600436101561001357600080fd5b60003560e01c90816305c413c3146107605750806307763ae1146106535780631da1b8bb146106155780632923880e146105635780634a4599c21461053757639751a86b1461006157600080fd5b346105325760a0366003190112610532576004356080366023190112610532577fc8fcad8db84d3cc18b4c41d551ea0ee66dd599cde068d998e57d5e09332c1320546001600160a01b03163381900361051a575060008181527f86cdd7e26397424c58eb7a47f2c1d490aabbcc7bd1f487a57628b475e6e7cbc160205260409020546001600160a01b0316156104c9576001600160a01b03610101610b4e565b16156104785763ffffffff610114610b64565b16156104345763ffffffff610127610b77565b16156103ef57608435801515806103e3575b1561039457600460406001600160a01b03610152610b4e565b16815192838092630730905b60e31b82525afa90811561038857600090600092610356575b501561030557156102b1576000828152600080516020610dd9833981519152602052604090206001906001600160a01b036101b0610b4e565b8254911663ffffffff60a01b6101c4610b64565b60a01b169063ffffffff60c01b6101d9610b77565b60c01b169263ffffffff60e01b161717178155015580600052600080516020610db98339815191526020526040600020600160ff19825416179055806000527f86cdd7e26397424c58eb7a47f2c1d490aabbcc7bd1f487a57628b475e6e7cbc16020526001604060002001600160a01b60ff60a01b1982541617905561025d610b4e565b907f21f71a16a323468b80a44cc89c30e63d2f9676bfb440164c5297fddd14bc7fb76040610289610b64565b9363ffffffff610297610b77565b835196821687521660208601526001600160a01b031693a3005b60405162461bcd60e51b815260206004820152602660248201527f4f7261636c6550656746616365743a206f7261636c65206e6f7420696e697469604482015265185b1a5e995960d21b6064820152608490fd5b60405162461bcd60e51b8152602060048201526024808201527f4f7261636c6550656746616365743a206f7261636c652072657475726e6564206044820152637a65726f60e01b6064820152608490fd5b905061037a915060403d604011610381575b6103728183610912565b810190610934565b9038610177565b503d610368565b6040513d6000823e3d90fd5b60405162461bcd60e51b815260206004820152602160248201527f4f7261636c6550656746616365743a20696e76616c696420646576696174696f6044820152603760f91b6064820152608490fd5b50611388811115610139565b60405162461bcd60e51b815260206004820152601e60248201527f4f7261636c6550656746616365743a207a65726f207374616c656e65737300006044820152606490fd5b606460405162461bcd60e51b815260206004820152602060248201527f4f7261636c6550656746616365743a207a65726f207477617020706572696f646044820152fd5b60405162461bcd60e51b815260206004820152602360248201527f4f7261636c6550656746616365743a207a65726f206f7261636c65206164647260448201526265737360e81b6064820152608490fd5b60405162461bcd60e51b815260206004820152602360248201527f4f7261636c6550656746616365743a20706f6f6c20646f6573206e6f742065786044820152621a5cdd60ea1b6064820152608490fd5b63ff4127cb60e01b6000523360045260245260446000fd5b600080fd5b346105325760203660031901126105325760406105556004356109c3565b825191825215156020820152f35b346105325760203660031901126105325760006060604051610584816108e0565b8281528260208201528260408201520152600435600052600080516020610dd9833981519152602052608060406000206040516105c0816108e0565b63ffffffff82548160018060a01b03821694858552606060016020870192848660a01c16845284604089019660c01c168652015495019485526040519586525116602085015251166040830152516060820152f35b3461053257602036600319011261053257600435600052600080516020610db9833981519152602052602060ff604060002054166040519015158152f35b34610532576020366003190112610532577fc8fcad8db84d3cc18b4c41d551ea0ee66dd599cde068d998e57d5e09332c132054600435906001600160a01b03163381900361051a575080600052600080516020610db98339815191526020526106c360ff6040600020541661094a565b6000818152600080516020610dd9833981519152602090815260408083208381556001908101849055600080516020610db98339815191528352818420805460ff191690557f86cdd7e26397424c58eb7a47f2c1d490aabbcc7bd1f487a57628b475e6e7cbc1909252822001805460ff60a01b191690557fc6d361a5ad9f911190a26faabc5a4b9d3beba6528eefc2d53edcaa76fb46bf929080a2005b34610532576020366003190112610532576004359081600052600080516020610db983398151915260205260ff604060002054161561089e57506000908152600080516020610dd9833981519152602052604090819020548151630730905b60e31b81526001600160a01b0382169290919082600481865afa9081156103885760009260009261086d575b5063ffffffff60246020926040519687938492633d465e4d60e01b845260a01c1660048301525afa90811561038857600091610838575b6060935060405192835260208301526040820152f35b90506020833d602011610865575b8161085360209383610912565b81010312610532576060925190610822565b3d9150610846565b60249350602091925061089363ffffffff9160403d604011610381576103728183610912565b9094509291506107eb565b62461bcd60e51b815260206004820152601a60248201527f4f7261636c6550656746616365743a206e6f74207065676765640000000000006044820152606490fd5b6080810190811067ffffffffffffffff8211176108fc57604052565b634e487b7160e01b600052604160045260246000fd5b90601f8019910116810190811067ffffffffffffffff8211176108fc57604052565b9190826040910312610532576020825192015190565b1561095157565b60405162461bcd60e51b815260206004820152602160248201527f4f7261636c6550656746616365743a206e6f7420612070656767656420706f6f6044820152601b60fa1b6064820152608490fd5b919082039182116109ad57565b634e487b7160e01b600052601160045260246000fd5b80600052600080516020610db98339815191526020526109ea60ff6040600020541661094a565b600052600080516020610dd9833981519152602052604060002080549060018060a01b0382169160405192633d465e4d60e01b845263ffffffff8260a01c166004850152602084602481845afa93841561038857600094610b16575b5060408051630730905b60e31b81529291839060049082905afa801561038857600092600091610ae8575b50610a8163ffffffff91426109a0565b9160c01c1610610add576001908380821115610aca57610aa481610aa9936109a0565b610b9d565b915b015410610ac157610abb90610d60565b90600190565b50600090600090565b610aa4610ad792826109a0565b91610aab565b505050600090600090565b610a81935063ffffffff9150610b0c9060403d604011610381576103728183610912565b9390939150610a71565b90936020823d602011610b46575b81610b3160209383610912565b81010312610b43575051926040610a46565b80fd5b3d9150610b24565b6024356001600160a01b03811681036105325790565b60443563ffffffff811681036105325790565b60643563ffffffff811681036105325790565b818102929181159184041417156109ad57565b600019612710820991612710820291828085109403938085039414610d0e5783821115610cc957612710829109816109ad57610bf082600003831680930494600184806000030401908584119003610b8a565b92030417816003026003810483036109ad57600218610c0f8184610b8a565b600203600281116109ad57610c2391610b8a565b610c2d8184610b8a565b600203600281116109ad57610c4191610b8a565b610c4b8184610b8a565b600203600281116109ad57610c5f91610b8a565b610c698184610b8a565b600203600281116109ad57610c7d91610b8a565b610c878184610b8a565b60020390600282116109ad57610ca791610ca091610b8a565b8093610b8a565b60020391600283116109ad57610cc692610cc091610b8a565b90610b8a565b90565b60405162461bcd60e51b815260206004820152601e60248201527f46756c6c4d6174683a2064656e6f6d696e61746f72203c3d2070726f643100006044820152606490fd5b5080925015610d1b570490565b60405162461bcd60e51b815260206004820152601a60248201527f46756c6c4d6174683a206469766973696f6e206279207a65726f0000000000006044820152606490fd5b600091600019600160801b83099160801b9081808410930391838314610da657505003670de0b6b3a76400001115610cc957634e487b7160e01b81526011600452602490fd5b670de0b6b3a76400009004935091505056fe86cdd7e26397424c58eb7a47f2c1d490aabbcc7bd1f487a57628b475e6e7cbd586cdd7e26397424c58eb7a47f2c1d490aabbcc7bd1f487a57628b475e6e7cbd4a26469706673582212208b0d57e37f970287741f9b06b5bc6a814fc4cb126800202d5110ebd9be11cfd964736f6c634300081b0033",
  "linkReferences": {},
  "deployedLinkReferences": {}
}