{
  "_format": "hh-sol-artifact-1",
  "contractName": "OrderManager",
  "sourceName": "src/periphery/OrderManager.sol",
  "abi": [
    {
      "inputs": [
        {
          "internalType": "address",
          "name": "_diamond",
          "type": "address"
        }
      ],
      "stateMutability": "nonpayable",
      "type": "constructor"
    },
    {
      "inputs": [],
      "name": "DeadlineExpired",
      "type": "error"
    },
    {
      "inputs": [],
      "name": "ReentrantCall",
      "type": "error"
    },
    {
      "inputs": [],
      "name": "ZeroAddress",
      "type": "error"
    },
    {
      "anonymous": false,
      "inputs": [
        {
          "indexed": true,
          "internalType": "uint256",
          "name": "orderId",
          "type": "uint256"
        },
        {
          "indexed": true,
          "internalType": "bytes32",
          "name": "poolId",
          "type": "bytes32"
        },
        {
          "indexed": true,
          "internalType": "address",
          "name": "owner",
          "type": "address"
        }
      ],
      "name": "LimitOrderPlaced",
      "type": "event"
    },
    {
      "anonymous": false,
      "inputs": [
        {
          "indexed": true,
          "internalType": "uint256",
          "name": "orderId",
          "type": "uint256"
        },
        {
          "indexed": true,
          "internalType": "bytes32",
          "name": "poolId",
          "type": "bytes32"
        },
        {
          "indexed": true,
          "internalType": "address",
          "name": "owner",
          "type": "address"
        }
      ],
      "name": "StopOrderPlaced",
      "type": "event"
    },
    {
      "inputs": [
        {
          "internalType": "uint256[]",
          "name": "orderIds",
          "type": "uint256[]"
        }
      ],
      "name": "batchExecuteOrders",
      "outputs": [
        {
          "internalType": "uint256",
          "name": "totalBounty",
          "type": "uint256"
        }
      ],
      "stateMutability": "nonpayable",
      "type": "function"
    },
    {
      "inputs": [
        {
          "internalType": "uint256",
          "name": "orderId",
          "type": "uint256"
        }
      ],
      "name": "cancelOrder",
      "outputs": [],
      "stateMutability": "nonpayable",
      "type": "function"
    },
    {
      "inputs": [],
      "name": "diamond",
      "outputs": [
        {
          "internalType": "address",
          "name": "",
          "type": "address"
        }
      ],
      "stateMutability": "view",
      "type": "function"
    },
    {
      "inputs": [
        {
          "internalType": "uint256",
          "name": "orderId",
          "type": "uint256"
        }
      ],
      "name": "executeOrder",
      "outputs": [
        {
          "internalType": "uint256",
          "name": "amountOut",
          "type": "uint256"
        },
        {
          "internalType": "uint256",
          "name": "bounty",
          "type": "uint256"
        }
      ],
      "stateMutability": "nonpayable",
      "type": "function"
    },
    {
      "inputs": [
        {
          "internalType": "bytes32",
          "name": "poolId",
          "type": "bytes32"
        }
      ],
      "name": "getActiveOrderCount",
      "outputs": [
        {
          "internalType": "uint256",
          "name": "",
          "type": "uint256"
        }
      ],
      "stateMutability": "view",
      "type": "function"
    },
    {
      "inputs": [
        {
          "internalType": "uint256",
          "name": "orderId",
          "type": "uint256"
        }
      ],
      "name": "getOrder",
      "outputs": [
        {
          "components": [
            {
              "internalType": "uint256",
              "name": "orderId",
              "type": "uint256"
            },
            {
              "internalType": "bytes32",
              "name": "poolId",
              "type": "bytes32"
            },
            {
              "internalType": "address",
              "name": "owner",
              "type": "address"
            },
            {
              "internalType": "enum IOrderFacet.OrderType",
              "name": "orderType",
              "type": "uint8"
            },
            {
              "internalType": "bool",
              "name": "zeroForOne",
              "type": "bool"
            },
            {
              "internalType": "int24",
              "name": "targetTick",
              "type": "int24"
            },
            {
              "internalType": "uint256",
              "name": "amountTotal",
              "type": "uint256"
            },
            {
              "internalType": "uint256",
              "name": "amountFilled",
              "type": "uint256"
            },
            {
              "internalType": "uint256",
              "name": "depositTimestamp",
              "type": "uint256"
            },
            {
              "internalType": "uint256",
              "name": "expiry",
              "type": "uint256"
            },
            {
              "internalType": "enum IOrderFacet.OrderStatus",
              "name": "status",
              "type": "uint8"
            }
          ],
          "internalType": "struct IOrderFacet.Order",
          "name": "",
          "type": "tuple"
        }
      ],
      "stateMutability": "view",
      "type": "function"
    },
    {
      "inputs": [
        {
          "internalType": "bytes32",
          "name": "poolId",
          "type": "bytes32"
        },
        {
          "internalType": "int24",
          "name": "tick",
          "type": "int24"
        }
      ],
      "name": "getOrdersAtTick",
      "outputs": [
        {
          "internalType": "uint256[]",
          "name": "",
          "type": "uint256[]"
        }
      ],
      "stateMutability": "view",
      "type": "function"
    },
    {
      "inputs": [
        {
          "components": [
            {
              "internalType": "bytes32",
              "name": "poolId",
              "type": "bytes32"
            },
            {
              "internalType": "bool",
              "name": "zeroForOne",
              "type": "bool"
            },
            {
              "internalType": "int24",
              "name": "targetTick",
              "type": "int24"
            },
            {
              "internalType": "uint256",
              "name": "amount",
              "type": "uint256"
            },
            {
              "internalType": "uint256",
              "name": "expiry",
              "type": "uint256"
            },
            {
              "internalType": "uint256",
              "name": "deadline",
              "type": "uint256"
            }
          ],
          "internalType": "struct OrderManager.PlaceLimitOrderParams",
          "name": "params",
          "type": "tuple"
        }
      ],
      "name": "placeLimitOrder",
      "outputs": [
        {
          "internalType": "uint256",
          "name": "orderId",
          "type": "uint256"
        }
      ],
      "stateMutability": "nonpayable",
      "type": "function"
    },
    {
      "inputs": [
        {
          "components": [
            {
              "internalType": "bytes32",
              "name": "poolId",
              "type": "bytes32"
            },
            {
              "internalType": "bool",
              "name": "zeroForOne",
              "type": "bool"
            },
            {
              "internalType": "int24",
              "name": "targetTick",
              "type": "int24"
            },
            {
              "internalType": "uint256",
              "name": "amount",
              "type": "uint256"
            },
            {
              "internalType": "uint256",
              "name": "expiry",
              "type": "uint256"
            },
            {
              "internalType": "uint256",
              "name": "deadline",
              "type": "uint256"
            }
          ],
          "internalType": "struct OrderManager.PlaceStopOrderParams",
          "name": "params",
          "type": "tuple"
        }
      ],
      "name": "placeStopOrder",
      "outputs": [
        {
          "internalType": "uint256",
          "name": "orderId",
          "type": "uint256"
        }
      ],
      "stateMutability": "nonpayable",
      "type": "function"
    }
  ],
  "bytecode": "0x60a0346100bd57601f610c8438819003918201601f19168301916001600160401b038311848410176100c2578084926020946040528339810103126100bd57516001600160a01b0381168082036100bd576001600055156100ac57608052604051610bab90816100d9823960805181818160990152818161014f01528181610383015281816104a10152818161066301528181610760015281816108640152818161092501526109c60152f35b63d92e233d60e01b60005260046000fd5b600080fd5b634e487b7160e01b600052604160045260246000fdfe608080604052600436101561001357600080fd5b600090813560e01c9081632815cf3f1461099957508063514fcac7146109085780637569c707146107d357806394f6113414610728578063986da7aa146105d3578063b31282a11461045d578063cc28090814610324578063d09ef241146100cb5763f0b7db4e1461008457600080fd5b346100c857806003193601126100c8576040517f00000000000000000000000000000000000000000000000000000000000000006001600160a01b03168152602090f35b80fd5b50346100c85760203660031901126100c857806101406040516100ed81610a94565b8281528260208201528260408201528260608201528260808201528260a08201528260c08201528260e08201528261010082015282610120820152015260405163d09ef24160e01b815260043560048201526101608160248160018060a01b037f0000000000000000000000000000000000000000000000000000000000000000165afa90811561031957829161022a575b5061014060405191805183526020810151602084015260018060a01b0360408201511660408401526101b960608201516060850190610a3f565b60808101511515608084015260a081015160020b60a084015260c081015160c084015260e081015160e084015261010081015161010084015261012081015161012084015201516005811015610216576101609250610140820152f35b634e487b7160e01b83526021600452602483fd5b9050610160813d8211610311575b816102466101609383610ab1565b8101031261030d576040519061025b82610a94565b805182526020808201519083015260408101516001600160a01b0381168103610309576040830152606081015160028110156103095760608301526080810151801515810361030957608083015260a0810151908160020b8203610309576101409160a084015260c081015160c084015260e081015160e084015261010081015161010084015261012081015161012084015201516005811015610305576101408201523861017f565b8280fd5b8380fd5b5080fd5b3d9150610238565b6040513d84823e3d90fd5b50346100c85760203660031901126100c85760043567ffffffffffffffff811161030d573660238201121561030d57806004013567ffffffffffffffff8111610305573660248260051b84010111610305579061037f610b53565b82907f00000000000000000000000000000000000000000000000000000000000000006001600160a01b031690825b8481101561044e5760405163253d844d60e21b815260248260051b8401013560048201526040816024818a885af187918161041c575b506103f457506001905b016103ae565b8491940180911161040857600190936103ee565b634e487b7160e01b86526011600452602486fd5b61043e91925060403d8111610447575b6104368183610ab1565b810190610b3d565b905090386103e4565b503d61042c565b60208460018855604051908152f35b50346100c85760403660031901126100c8576024358060020b80910361030d5760405163b31282a160e01b81526004803590820152602481019190915281816044817f00000000000000000000000000000000000000000000000000000000000000006001600160a01b03165afa90811561031957829161051f575b5090604051918291602083016020845282518091526020604085019301915b818110610506575050500390f35b82518452859450602093840193909201916001016104f8565b90503d8083833e6105308183610ab1565b8101906020818303126103055780519067ffffffffffffffff821161030957019080601f830112156103055781519167ffffffffffffffff83116105bf578260051b90604051936105846020840186610ab1565b84526020808501928201019283116105bb57602001905b8282106105ab57505050386104d9565b815181526020918201910161059b565b8480fd5b634e487b7160e01b84526041600452602484fd5b50346100c85760c03660031901126100c8576105ed610b53565b60a43542116107195761065e90600435906020610608610ad3565b610610610ae2565b6040519161061d83610a62565b85835284848401521515604083015260020b6060820152606435608082015260843560a08201526040518095819263b015786960e01b835260048301610af2565b0381847f00000000000000000000000000000000000000000000000000000000000000006001600160a01b03165af192831561070c5781936106d2575b50916001602093604051933390847f6e496602dfdc9a0efd349276b2050a3b91ef4a6619ce785ce5f4e8b2809d17b88480a4558152f35b92506020833d602011610704575b816106ed60209383610ab1565b810103126106ff57915191600161069b565b600080fd5b3d91506106e0565b50604051903d90823e3d90fd5b631ab7da6b60e01b8152600490fd5b50346100c85760203660031901126100c857610742610b53565b6040805163253d844d60e21b815260048035908201529081602481857f00000000000000000000000000000000000000000000000000000000000000006001600160a01b03165af1801561031957826040939281926107ad575b506001905582519182526020820152f35b600193506107c9919250843d8611610447576104368183610ab1565b929092919061079c565b50346100c85760c03660031901126100c8576107ed610b53565b60a43542116107195761085f90600435906020610808610ad3565b610810610ae2565b6040519161081d83610a62565b8583526001848401521515604083015260020b6060820152606435608082015260843560a08201526040518095819263b015786960e01b835260048301610af2565b0381847f00000000000000000000000000000000000000000000000000000000000000006001600160a01b03165af192831561070c5781936108d3575b50916001602093604051933390847f6e5e19bc3f63ef65ece2a6ac0dfdff2d39e18f0d170e7c822cac50e453e707fe8480a4558152f35b92506020833d602011610900575b816108ee60209383610ab1565b810103126106ff57915191600161089c565b3d91506108e1565b50346100c85760203660031901126100c857610922610b53565b807f00000000000000000000000000000000000000000000000000000000000000006001600160a01b0316803b156109965781809160246040518095819363514fcac760e01b835260043560048401525af1801561070c57610986575b6001815580f35b61098f91610ab1565b388161097f565b50fd5b90503461030d57602036600319011261030d57632815cf3f60e01b815260048035908201526020816024817f00000000000000000000000000000000000000000000000000000000000000006001600160a01b03165afa908115610319578291610a09575b602082604051908152f35b90506020813d602011610a37575b81610a2460209383610ab1565b8101031261030d576020915051386109fe565b3d9150610a17565b906002821015610a4c5752565b634e487b7160e01b600052602160045260246000fd5b60c0810190811067ffffffffffffffff821117610a7e57604052565b634e487b7160e01b600052604160045260246000fd5b610160810190811067ffffffffffffffff821117610a7e57604052565b90601f8019910116810190811067ffffffffffffffff821117610a7e57604052565b60243580151581036106ff5790565b6044358060020b81036106ff5790565b91909160a08060c083019480518452610b1360208201516020860190610a3f565b604081015115156040850152606081015160020b6060850152608081015160808501520151910152565b91908260409103126106ff576020825192015190565b600260005414610b64576002600055565b6306fda65d60e31b60005260046000fdfea2646970667358221220ff29e31b90921342fed125639c0c683327a894bb7dcb996e74bf9a02a318735a64736f6c634300081b0033",
  "linkReferences": {},
  "deployedLinkReferences": {}
}