{
  "_format": "hh-sol-artifact-1",
  "contractName": "FlashLoanFacet",
  "sourceName": "src/core/facets/FlashLoanFacet.sol",
  "abi": [
    {
      "inputs": [
        {
          "internalType": "address",
          "name": "_user",
          "type": "address"
        },
        {
          "internalType": "address",
          "name": "_contractOwner",
          "type": "address"
        }
      ],
      "name": "NotContractOwner",
      "type": "error"
    },
    {
      "inputs": [],
      "name": "ProtocolPaused",
      "type": "error"
    },
    {
      "inputs": [],
      "name": "ReentrantCall",
      "type": "error"
    },
    {
      "inputs": [],
      "name": "TransferFailed",
      "type": "error"
    },
    {
      "anonymous": false,
      "inputs": [
        {
          "indexed": true,
          "internalType": "address",
          "name": "receiver",
          "type": "address"
        },
        {
          "indexed": true,
          "internalType": "address",
          "name": "token",
          "type": "address"
        },
        {
          "indexed": false,
          "internalType": "uint256",
          "name": "amount",
          "type": "uint256"
        },
        {
          "indexed": false,
          "internalType": "uint256",
          "name": "fee",
          "type": "uint256"
        }
      ],
      "name": "FlashLoan",
      "type": "event"
    },
    {
      "inputs": [
        {
          "internalType": "address",
          "name": "receiver",
          "type": "address"
        },
        {
          "internalType": "address",
          "name": "token",
          "type": "address"
        },
        {
          "internalType": "uint256",
          "name": "amount",
          "type": "uint256"
        },
        {
          "internalType": "bytes",
          "name": "data",
          "type": "bytes"
        }
      ],
      "name": "flashLoan",
      "outputs": [],
      "stateMutability": "nonpayable",
      "type": "function"
    },
    {
      "inputs": [
        {
          "internalType": "uint256",
          "name": "amount",
          "type": "uint256"
        }
      ],
      "name": "getFlashLoanFee",
      "outputs": [
        {
          "internalType": "uint256",
          "name": "fee",
          "type": "uint256"
        }
      ],
      "stateMutability": "view",
      "type": "function"
    },
    {
      "inputs": [
        {
          "internalType": "uint256",
          "name": "feeBps",
          "type": "uint256"
        }
      ],
      "name": "setFlashLoanFee",
      "outputs": [],
      "stateMutability": "nonpayable",
      "type": "function"
    }
  ],
  "bytecode": "0x608080604052346015576109a4908161001b8239f35b600080fdfe6080604052600436101561001257600080fd5b60003560e01c80635cffe9de146100475780638dd2a7cf146100425763e92d0d5d1461003d57600080fd5b610110565b6100ea565b346100b95760803660031901126100b9576100606100be565b6100686100d4565b6064359160443567ffffffffffffffff84116100b957366023850112156100b95783600401359267ffffffffffffffff84116100b95736602485870101116100b95760246100b7950192610441565b005b600080fd5b600435906001600160a01b03821682036100b957565b602435906001600160a01b03821682036100b957565b346100b95760203660031901126100b9576020610108600435610659565b604051908152f35b346100b95760203660031901126100b9576004357fc8fcad8db84d3cc18b4c41d551ea0ee66dd599cde068d998e57d5e09332c1320546001600160a01b0316338190036101c9575060648111610184577f86cdd7e26397424c58eb7a47f2c1d490aabbcc7bd1f487a57628b475e6e7cbdf55005b60405162461bcd60e51b815260206004820152601c60248201527f466c6173684c6f616e46616365743a2066656520746f6f2068696768000000006044820152606490fd5b63ff4127cb60e01b6000523360045260245260446000fd5b156101e857565b60405162461bcd60e51b815260206004820152601b60248201527f466c6173684c6f616e46616365743a207a65726f20616d6f756e7400000000006044820152606490fd5b1561023457565b60405162461bcd60e51b815260206004820152601d60248201527f466c6173684c6f616e46616365743a207a65726f2072656365697665720000006044820152606490fd5b90601f8019910116810190811067ffffffffffffffff82111761029b57604052565b634e487b7160e01b600052604160045260246000fd5b908160209103126100b9575190565b6040513d6000823e3d90fd5b156102d357565b60405162461bcd60e51b815260206004820152602660248201527f466c6173684c6f616e46616365743a20696e73756666696369656e74206c697160448201526575696469747960d01b6064820152608490fd5b908160209103126100b9575180151581036100b95790565b93909285939260a09693600180891b031686526020860152604085015260806060850152816080850152848401376000828201840152601f01601f1916010190565b1561038857565b60405162461bcd60e51b815260206004820152601f60248201527f466c6173684c6f616e46616365743a2063616c6c6261636b206661696c6564006044820152606490fd5b634e487b7160e01b600052601160045260246000fd5b919082018092116103f057565b6103cd565b156103fc57565b60405162461bcd60e51b815260206004820152601a60248201527f466c6173684c6f616e46616365743a206e6f74207265706169640000000000006044820152606490fd5b919390929361044e6106a6565b610456610706565b6104618115156101e1565b6001600160a01b0383169361047785151561022d565b61048082610659565b6040516370a0823160e01b81523060048201526001600160a01b0383169790959194916020876024818c5afa9687156105e95760009761061d575b50926104f860209386936104dd858a986104d7828e10156102cc565b86610745565b604051639caee11360e01b815296879586956004870161033f565b03816000895af180156105e957610517916000916105ee575b50610381565b6040516370a0823160e01b8152306004820152602081602481895afa9384156105e9577f0d7d75e01ab95780d3cd1c8ec0dd6c2ce19e3a20427eec8bf53283b6fb8e95f0948461057b936000926105b6575b5061057491926103e3565b11156103f5565b604080519182526020820192909252a36105b460017f86cdd7e26397424c58eb7a47f2c1d490aabbcc7bd1f487a57628b475e6e7cbe455565b565b61057492506105dc9060203d6020116105e2575b6105d48183610279565b8101906102b1565b91610569565b503d6105ca565b6102c0565b610610915060203d602011610616575b6106088183610279565b810190610327565b38610511565b503d6105fe565b85975060209386936104dd858a98956104d76106486104f8978b3d8d116105e2576105d48183610279565b9d50509598505050935093506104bb565b906106857f86cdd7e26397424c58eb7a47f2c1d490aabbcc7bd1f487a57628b475e6e7cbdf548361087c565b918215908161069c575b5061069657565b60019150565b905015153861068f565b60027f86cdd7e26397424c58eb7a47f2c1d490aabbcc7bd1f487a57628b475e6e7cbe454146106f55760027f86cdd7e26397424c58eb7a47f2c1d490aabbcc7bd1f487a57628b475e6e7cbe455565b6306fda65d60e31b60005260046000fd5b60ff7f86cdd7e26397424c58eb7a47f2c1d490aabbcc7bd1f487a57628b475e6e7cbe05460a01c1661073457565b634427925560e01b60005260046000fd5b91909181156107a157602092600060449281946040519363a9059cbb60e01b855260018060a01b0316600485015260248401525af13d15601f3d116001600051141617161561079057565b6312171d8360e31b60005260046000fd5b505050565b156107ad57565b60405162461bcd60e51b815260206004820152601a60248201527f46756c6c4d6174683a206469766973696f6e206279207a65726f0000000000006044820152606490fd5b156107f957565b60405162461bcd60e51b815260206004820152601e60248201527f46756c6c4d6174683a2064656e6f6d696e61746f72203c3d2070726f643100006044820152606490fd5b9081600003916103f057565b60020390600282116103f057565b90816003029160038304036103f057565b818102929181159184041417156103f057565b906000198183099080830292838084109303928084039314610959579261271061091592610956956108af8684116107f2565b096108bb61271061083e565b61271016906108dd826127100495600184806000030401908584119003610869565b920304179161091561091061094f61094261093561092861091b600261090289610858565b18610915610910828b610869565b61084a565b90610869565b610915610910828a610869565b6109156109108289610869565b6109156109108288610869565b6109156109108287610869565b8093610869565b90565b5050506127109061096a60016107a6565b049056fea2646970667358221220c8454309e7267fde72f3bc8bc521ff4e0c20985b94b1a219554ecbd019d865a664736f6c634300081b0033",
  "linkReferences": {},
  "deployedLinkReferences": {}
}