{
  "_format": "hh-sol-artifact-1",
  "contractName": "Router",
  "sourceName": "src/periphery/Router.sol",
  "abi": [
    {
      "inputs": [
        {
          "internalType": "address",
          "name": "_diamond",
          "type": "address"
        }
      ],
      "stateMutability": "nonpayable",
      "type": "constructor"
    },
    {
      "inputs": [],
      "name": "DeadlineExpired",
      "type": "error"
    },
    {
      "inputs": [],
      "name": "InsufficientOutputAmount",
      "type": "error"
    },
    {
      "inputs": [],
      "name": "InvalidPath",
      "type": "error"
    },
    {
      "inputs": [],
      "name": "ReentrantCall",
      "type": "error"
    },
    {
      "inputs": [],
      "name": "ZeroAddress",
      "type": "error"
    },
    {
      "inputs": [],
      "name": "diamond",
      "outputs": [
        {
          "internalType": "address",
          "name": "",
          "type": "address"
        }
      ],
      "stateMutability": "view",
      "type": "function"
    },
    {
      "inputs": [
        {
          "components": [
            {
              "internalType": "bytes32[]",
              "name": "poolIds",
              "type": "bytes32[]"
            },
            {
              "internalType": "bool[]",
              "name": "zeroForOnes",
              "type": "bool[]"
            },
            {
              "internalType": "address",
              "name": "tokenIn",
              "type": "address"
            },
            {
              "internalType": "uint256",
              "name": "amountIn",
              "type": "uint256"
            },
            {
              "internalType": "uint256",
              "name": "amountOutMinimum",
              "type": "uint256"
            },
            {
              "internalType": "address",
              "name": "recipient",
              "type": "address"
            },
            {
              "internalType": "uint256",
              "name": "deadline",
              "type": "uint256"
            }
          ],
          "internalType": "struct Router.ExactInputParams",
          "name": "params",
          "type": "tuple"
        }
      ],
      "name": "exactInput",
      "outputs": [
        {
          "internalType": "uint256",
          "name": "amountOut",
          "type": "uint256"
        }
      ],
      "stateMutability": "nonpayable",
      "type": "function"
    },
    {
      "inputs": [
        {
          "components": [
            {
              "internalType": "bytes32",
              "name": "poolId",
              "type": "bytes32"
            },
            {
              "internalType": "bool",
              "name": "zeroForOne",
              "type": "bool"
            },
            {
              "internalType": "uint256",
              "name": "amountIn",
              "type": "uint256"
            },
            {
              "internalType": "uint256",
              "name": "amountOutMinimum",
              "type": "uint256"
            },
            {
              "internalType": "uint160",
              "name": "sqrtPriceLimitX96",
              "type": "uint160"
            },
            {
              "internalType": "address",
              "name": "recipient",
              "type": "address"
            },
            {
              "internalType": "uint256",
              "name": "deadline",
              "type": "uint256"
            }
          ],
          "internalType": "struct Router.ExactInputSingleParams",
          "name": "params",
          "type": "tuple"
        }
      ],
      "name": "exactInputSingle",
      "outputs": [
        {
          "internalType": "uint256",
          "name": "amountOut",
          "type": "uint256"
        }
      ],
      "stateMutability": "nonpayable",
      "type": "function"
    },
    {
      "inputs": [
        {
          "components": [
            {
              "internalType": "bytes32",
              "name": "poolId",
              "type": "bytes32"
            },
            {
              "internalType": "bool",
              "name": "zeroForOne",
              "type": "bool"
            },
            {
              "internalType": "uint256",
              "name": "amountOut",
              "type": "uint256"
            },
            {
              "internalType": "uint256",
              "name": "amountInMaximum",
              "type": "uint256"
            },
            {
              "internalType": "uint160",
              "name": "sqrtPriceLimitX96",
              "type": "uint160"
            },
            {
              "internalType": "address",
              "name": "recipient",
              "type": "address"
            },
            {
              "internalType": "uint256",
              "name": "deadline",
              "type": "uint256"
            }
          ],
          "internalType": "struct Router.ExactOutputSingleParams",
          "name": "params",
          "type": "tuple"
        }
      ],
      "name": "exactOutputSingle",
      "outputs": [
        {
          "internalType": "uint256",
          "name": "amountIn",
          "type": "uint256"
        }
      ],
      "stateMutability": "nonpayable",
      "type": "function"
    }
  ],
  "bytecode": "0x60a03461009a57601f61090438819003918201601f19168301916001600160401b0383118484101761009f5780849260209460405283398101031261009a57516001600160a01b03811680820361009a576001600055156100895760805260405161084e90816100b68239608051818181605e0152818161013e015281816102ea01526103fc0152f35b63d92e233d60e01b60005260046000fd5b600080fd5b634e487b7160e01b600052604160045260246000fdfe6080604052600436101561001257600080fd5b60003560e01c806309a26287146103915780633e2949ac146102345780635865f45e146100925763f0b7db4e1461004857600080fd5b3461008d57600036600319011261008d576040517f00000000000000000000000000000000000000000000000000000000000000006001600160a01b03168152602090f35b600080fd5b3461008d5760e036600319011261008d5760006100ad6107f6565b60c4358042116102255760c0610139916100c5610684565b906100d16044356107cf565b6100d96107e0565b6100e1610648565b91604051946100ef866106a0565b600435865215156020860152604085015260018060a01b0316606084015260018060a01b0316608083015260a08201526040518093819263eab937cf60e01b835260048301610781565b0381857f00000000000000000000000000000000000000000000000000000000000000006001600160a01b03165af190811561021a5782916101eb575b5061017f610684565b156101e257515b606435811161019d57600160209255604051908152f35b60405162461bcd60e51b815260206004820152601760248201527f526f757465723a2065786365737369766520696e7075740000000000000000006044820152606490fd5b60200151610186565b61020d915060c03d60c011610213575b61020581836106d2565b8101906106f4565b82610176565b503d6101fb565b6040513d84823e3d90fd5b631ab7da6b60e01b8252600482fd5b3461008d5760e036600319011261008d57600061024f6107f6565b60c4358042116102255760c06102e591610267610684565b50610270610684565b50610279610684565b906102826107e0565b61028a610648565b9060405193610298856106a0565b600435855215156020850152604435604085015260018060a01b0316606084015260018060a01b0316608083015260a08201526040518093819263eab937cf60e01b835260048301610781565b0381857f00000000000000000000000000000000000000000000000000000000000000006001600160a01b03165af190811561021a578291610372575b5061032b610684565b1561036357602061033d9101516107cf565b606435811061035457600160209255604051908152f35b6342301c2360e01b8252600482fd5b61036d90516107cf565b61033d565b61038b915060c03d60c0116102135761020581836106d2565b82610322565b3461008d57602036600319011261008d5760043567ffffffffffffffff811161008d57806004019060e0600319823603011261008d576103cf6107f6565b60c481013590814211610601576103e68380610612565b90501580156105dd575b6105cc579060248201907f00000000000000000000000000000000000000000000000000000000000000006001600160a01b031690600060648501355b6104378780610612565b90508210156105a05761044a8780610612565b60001981019150811161058a578790830361057c575060a486013560006001600160a01b038216820361057957506104fc9160c09189915b6104ad6104a88761049b8c6104a18361049b8a80610612565b9061065e565b3597610612565b610693565b604051936104ba856106a0565b84521515602084015260408301526000606083015260018060a01b031660808201528460a08201526040518093819263eab937cf60e01b835260048301610781565b03816000885af1801561056d5760019160009161054f575b506105266104a88461049b898c610612565b156105405760206105389101516107cf565b91019061042d565b61054a90516107cf565b610538565b610567915060c03d81116102135761020581836106d2565b88610514565b6040513d6000823e3d90fd5b80fd5b60c0906104fc923090610482565b634e487b7160e01b600052601160045260246000fd5b608486013581106105bb576020906001600055604051908152f35b6342301c2360e01b60005260046000fd5b6320db826760e01b60005260046000fd5b506105e88380610612565b90506105f76024830185610612565b91905014156103f0565b631ab7da6b60e01b60005260046000fd5b903590601e198136030182121561008d570180359067ffffffffffffffff821161008d57602001918160051b3603831361008d57565b60a4356001600160a01b038116810361008d5790565b919081101561066e5760051b0190565b634e487b7160e01b600052603260045260246000fd5b602435801515810361008d5790565b35801515810361008d5790565b60c0810190811067ffffffffffffffff8211176106bc57604052565b634e487b7160e01b600052604160045260246000fd5b90601f8019910116810190811067ffffffffffffffff8211176106bc57604052565b908160c091031261008d5760405190600061070e836106a0565b815183526020808301519084015260408201516001600160a01b038116810361077d57604084015260608201518060020b810361077d5760608401526080820151906fffffffffffffffffffffffffffffffff8216820361057957509060a0916080840152015160a082015290565b5080fd5b91909160a08060c08301948051845260208101511515602085015260408101516040850152600180831b036060820151166060850152600180831b0360808201511660808501520151910152565b600160ff1b811461058a5760000390565b6084356001600160a01b038116810361008d5790565b600260005414610807576002600055565b6306fda65d60e31b60005260046000fdfea264697066735822122028be2b4d14ed5101fdcc2dd208cae73a9b9ca5c0b98888ed6f18902544e1428d64736f6c634300081b0033",
  "linkReferences": {},
  "deployedLinkReferences": {}
}