{
  "_format": "hh-sol-artifact-1",
  "contractName": "InitDiamond",
  "sourceName": "src/core/diamond/InitDiamond.sol",
  "abi": [
    {
      "inputs": [
        {
          "components": [
            {
              "internalType": "address",
              "name": "treasury",
              "type": "address"
            },
            {
              "internalType": "uint256",
              "name": "flashLoanFeeBps",
              "type": "uint256"
            },
            {
              "internalType": "uint256",
              "name": "maxOrdersPerPool",
              "type": "uint256"
            },
            {
              "internalType": "uint256",
              "name": "defaultOrderTTL",
              "type": "uint256"
            },
            {
              "internalType": "uint256",
              "name": "minOrderSize",
              "type": "uint256"
            },
            {
              "internalType": "uint256",
              "name": "keeperBountyBps",
              "type": "uint256"
            },
            {
              "internalType": "uint256",
              "name": "epochDuration",
              "type": "uint256"
            },
            {
              "internalType": "uint256",
              "name": "minSwapsForRebate",
              "type": "uint256"
            },
            {
              "internalType": "uint256",
              "name": "maxTradeSizeBps",
              "type": "uint256"
            }
          ],
          "internalType": "struct InitDiamond.InitArgs",
          "name": "args",
          "type": "tuple"
        }
      ],
      "name": "init",
      "outputs": [],
      "stateMutability": "nonpayable",
      "type": "function"
    }
  ],
  "bytecode": "0x6080806040523460155761039a908161001b8239f35b600080fdfe600436101561000d57600080fd5b60003560e01c63807d1df91461002257600080fd5b3461035f5761012036600319011261035f577fc8fcad8db84d3cc18b4c41d551ea0ee66dd599cde068d998e57d5e09332c131f6020527f699d9daa71b280d05a152715774afa0a81a312594b2d731d6b0b2552b7d6f69f8054600160ff1991821681179092557ff97e938d8af42f52387bb74b8b526fda8f184cc2aa534340a8d75a88fbecc77580548216831790557f65d510a5d8f7ef134ec444f7f34ee808c8eeb5177cdfd16be0c40fe1ab43369580548216831790556307f5828d60e41b60009081527f5622121b47b8cd0120c4efe45dd5483242f54a3d49bd7679be565d47694918c3805490921690921790556004356001600160a01b0381169081900361035b577f86cdd7e26397424c58eb7a47f2c1d490aabbcc7bd1f487a57628b475e6e7cbe0546024357f86cdd7e26397424c58eb7a47f2c1d490aabbcc7bd1f487a57628b475e6e7cbdf556044357f86cdd7e26397424c58eb7a47f2c1d490aabbcc7bd1f487a57628b475e6e7cbce556064357f86cdd7e26397424c58eb7a47f2c1d490aabbcc7bd1f487a57628b475e6e7cbcf556084357f86cdd7e26397424c58eb7a47f2c1d490aabbcc7bd1f487a57628b475e6e7cbd05560a4357f86cdd7e26397424c58eb7a47f2c1d490aabbcc7bd1f487a57628b475e6e7cbd15560017f86cdd7e26397424c58eb7a47f2c1d490aabbcc7bd1f487a57628b475e6e7cbc95560017f86cdd7e26397424c58eb7a47f2c1d490aabbcc7bd1f487a57628b475e6e7cbcd5560c4357f86cdd7e26397424c58eb7a47f2c1d490aabbcc7bd1f487a57628b475e6e7cbda5560e4357f86cdd7e26397424c58eb7a47f2c1d490aabbcc7bd1f487a57628b475e6e7cbdb55610104357f86cdd7e26397424c58eb7a47f2c1d490aabbcc7bd1f487a57628b475e6e7cbdc5560017f86cdd7e26397424c58eb7a47f2c1d490aabbcc7bd1f487a57628b475e6e7cbd855427f86cdd7e26397424c58eb7a47f2c1d490aabbcc7bd1f487a57628b475e6e7cbd95560017f86cdd7e26397424c58eb7a47f2c1d490aabbcc7bd1f487a57628b475e6e7cbe4556affffffffffffffffffffff60a81b16177f86cdd7e26397424c58eb7a47f2c1d490aabbcc7bd1f487a57628b475e6e7cbe05580f35b5080fd5b600080fdfea2646970667358221220391868d68d019335038e1598d2d6ebc8d5c4d081664da552d283d61a098e84da64736f6c634300081b0033",
  "linkReferences": {},
  "deployedLinkReferences": {}
}